:100000000C9462000C948A000C948A000C948A0070
:100010000C948A000C948A000C948A000C948A0038
:100020000C948A000C948A000C948A000C948A0028
:100030000C948A000C948A000C948A000C948A0018
:100040000C9435030C948A000C948A000C948A005A
:100050000C948A000C948A000C948A000C948A00F8
:100060000C948A000C948A000000000023002600F3
:10007000290000000000240027002A0000000000E2
:10008000250028002B0004040404040404040202D4
:100090000202020203030303030301020408102007
:1000A0004080010204081020010204081020000012
:1000B0000008000201000003040700000000000027
:1000C0000000F60411241FBECFEFD8E0DEBFCDBF85
:1000D00011E0A0E0B1E0E0E1FEE002C005900D9289
:1000E000A832B107D9F721E0A8E2B1E001C01D9222
:1000F000A934B207E1F710E0C2E6D0E004C02197CE
:10010000FE010E940007C136D107C9F70E947F0394
:100110000C9406070C940000833081F028F48130A1
:1001200099F08230A9F008958730A9F08830C9F09D
:100130008430B1F4809180008F7D03C08091800075
:100140008F7780938000089584B58F7784BD08955C
:1001500084B58F7DFBCF8091B0008F778093B00006
:1001600008958091B0008F7DF9CF1F93CF93DF93D7
:10017000282F30E0F901E255FF4F8491F901E6564E
:10018000FF4FD491F901EA57FF4FC491CC23A9F056
:10019000162F81110E948C00EC2FF0E0EE0FFF1F54
:1001A000E458FF4FA591B4918FB7F894EC911111D9
:1001B00008C0D095DE23DC938FBFDF91CF911F91D4
:1001C0000895DE2BF8CFCF93DF9390E0FC01E65645
:1001D000FF4F24918A579F4FFC0184918823D1F0CF
:1001E00090E0880F991FFC01EE58FF4FA591B49144
:1001F000FC01E458FF4FC591D49161110EC09FB727
:10020000F8948C91E22FE0958E238C932881E22341
:10021000E8839FBFDF91CF9108958FB7F894EC9159
:10022000E22BEC938FBFF6CF3FB7F89480912D016E
:1002300090912E01A0912F01B091300126B5A89B7D
:1002400005C02F3F19F00196A11DB11D3FBFBA2F68
:10025000A92F982F8827BC01CD01620F711D811D28
:10026000911D42E0660F771F881F991F4A95D1F7AD
:1002700008958F929F92AF92BF92CF92DF92EF92AA
:10028000FF924B015C010E9414016B017C010E94F2
:1002900014016C197D098E099F09683E7340810520
:1002A0009105A8F321E0821A9108A108B10888EE0F
:1002B000C80E83E0D81EE11CF11C81149104A10436
:1002C000B10429F7FF90EF90DF90CF90BF90AF90EF
:1002D0009F908F900895AF92BF92CF92DF92EF924E
:1002E000FF920F931F93CF93DF936C017B018B01E0
:1002F000040F151FEB015E01AE18BF08C017D10730
:1003000059F06991D601ED91FC910190F081E02DB9
:10031000C6010995892B79F7C501DF91CF911F910E
:100320000F91FF90EF90DF90CF90BF90AF90089526
:10033000089590E080E00895FC0101900020E9F725
:100340003197AF01481B590BBC0181E391E00C943C
:100350006B018F929F92AF92BF920F931F93CF9397
:10036000DF93CDB7DEB7A1970FB6F894DEBF0FBE0F
:10037000CDBF19A2423008F44AE08E010F5D1F4F35
:10038000842E912CB12CA12CA50194010E94DE0693
:10039000E62FB901CA01EA30F4F4E05DD801EE932A
:1003A0008D01232B242B252B79F790E080E01097EB
:1003B00019F0CD010E949C01A1960FB6F894DEBF02
:1003C0000FBECDBFDF91CF911F910F91BF90AF9026
:1003D0009F908F900895E95CE1CFCF93DF93EC017C
:1003E00060E08E810E94B50061E08E810E94B500C0
:1003F00060E08E810E94B5008BE891E00197F1F7F3
:10040000DF91CF910895CF92DF92EF92FF920F93F9
:100410001F93CF93DF936C017C0187E0E80EF11C02
:10042000D0E0C0E0062F10E0B8010C2E02C0759598
:1004300067950A94E2F76170F70181917F010E944C
:10044000B5002196C430D10579F7C601DF91CF916F
:100450001F910F91FF90EF90DF90CF900C94ED01E2
:10046000CF92DF92EF92FF920F931F93CF93DF9380
:10047000EC01F62E642F8C810E94B5008D818F3F98
:1004800019F060E00E94B5000F2D10E08F8584FF09
:1004900025C06E0187E0C80ED11CF12CE12CB801FB
:1004A0000E2C02C0759567950A94E2F76170F6010B
:1004B00081916F010E94B500FFEFEF1AFF0A88E0FB
:1004C000E816F10461F7CE01DF91CF911F910F91F2
:1004D000FF90EF90DF90CF900C94ED01B80184E095
:1004E000759567958A95E1F7CE010E9403026F2DFD
:1004F000CE01DF91CF911F910F91FF90EF90DF9090
:10050000CF900C94030240E0682F81E391E00C94BB
:100510003002CF93DF93823029F4909140019860AC
:1005200090934001809344011092450180E48093B0
:10053000460180E18093470180E58093480161E0B6
:10054000809135010E94E300809136018F3F19F0C0
:1005500061E00E94E30061E0809137010E94E300C6
:10056000C1E3D1E09E01215331408091400184FDDF
:100570000BC084E090E021962817390744F461E02D
:100580008E810E94E300EECF88E090E0F4CF8BE311
:100590009DE00197F1F760E0809135010E94B50080
:1005A00060E0809137010E94B500809136018F3F55
:1005B00019F060E00E94B5008091400184FD39C0CF
:1005C00063E081E391E00E940302CBE4D6E4CE0134
:1005D0000197F1F763E081E391E00E940302219724
:1005E000F1F763E081E391E00E94030283E592E08A
:1005F0000197F1F762E081E391E00E9403028091AC
:10060000400180620E94830284E0809341018CE07B
:100610000E94830281E00E9483028BE39FE10197A5
:10062000F1F782E08093420186E0DF91CF910C9454
:10063000830280620E9483028BE496E40197F1F7C3
:100640008091400180620E94830283E592E00197DD
:10065000F1F78091400180620E948302D0CF41E097
:100660000E94300281E090E008951F920F920FB631
:100670000F9211242F933F938F939F93AF93BF9328
:100680008091290190912A01A0912B01B0912C0118
:100690003091280123E0230F2D3758F50196A11D35
:1006A000B11D209328018093290190932A01A093E2
:1006B0002B01B0932C0180912D0190912E01A091DE
:1006C0002F01B09130010196A11DB11D80932D0124
:1006D00090932E01A0932F01B0933001BF91AF9161
:1006E0009F918F913F912F910F900FBE0F901F9070
:1006F000189526E8230F0296A11DB11DD2CF78943C
:1007000084B5826084BD84B5816084BD85B5826016
:1007100085BD85B5816085BD80916E0081608093C7
:100720006E00109281008091810082608093810030
:100730008091810081608093810080918000816040
:10074000809380008091B10084608093B10080919B
:10075000B00081608093B00080917A0084608093C3
:100760007A0080917A00826080937A0080917A008A
:10077000816080937A0080917A00806880937A000B
:100780001092C10060E08EE00E94E30061E08DE025
:100790000E94E30061E087E00E94E30061E086E000
:1007A0000E94E30082E00E948902CBE3DFE191EC4A
:1007B000292E90E0392E2DEA822E20E0922E09E992
:1007C00010E030E0A32E30E0B32E80E480937C0074
:1007D00080917A00806480937A0080917A0086FD0F
:1007E000FCCF6091780070917900072E000C880B87
:1007F000990B0E94B7052AE038E240EA5BE30E94C9
:100800006C0620E030E048EC52E40E946C066B017C
:100810007C01E1E0809144018111E0E0E195F0E0AC
:10082000EF5CFE4F848980680E948302A7019601D5
:10083000C701B6010E94D906882309F443C08CE0A1
:1008400091E00E949C0188E191E00E949C0168EE89
:1008500073E080E090E00E94390181E00E94830211
:10086000CE010197F1F7F1018491F4019491F8011F
:10087000F490FF2061F081110E948C00EF2DF0E0D8
:10088000EE0FFF1FE859FF4FA591B4918C9168ECD2
:1008900070E080E090E00E94390161E08DE00E940C
:1008A000B50061E086E00E94B50068EE73E080E08C
:1008B00090E00E943901A114B10409F486CF0E948E
:1008C000000083CF26013701E89477F82FEF3FEF40
:1008D0004FE75FE7C301B2010E94D90681110DC045
:1008E0002FEF3FEF4FE75FE7C301B2010E948105A1
:1008F00018161CF480E191E0A4CF2FEF3FEF4FE7F3
:100900005FE4C701B6010E94670618161CF484E173
:1009100091E097CF2FEF3FEF4FE75FECC701B601B4
:100920000E94810587FDF3CF20E030E0A901C701D7
:10093000B6010E94810587FF0AC041E06DE281E3B4
:1009400091E00E943002F7FAF094F7F8F0942AE070
:1009500037ED43EA5BE3C701B6010E9415052B01A1
:100960003C010E9486056B017C010E94B5059B013C
:10097000AC01C301B2010E9414052B013C014AE005
:10098000C701B6010E94A90141E06EE281E391E056
:100990000E94300220E030E040E251E4C301B201A5
:1009A0000E946C062B013C010E9486056B01F12C14
:1009B000E12C4AE0C701B6010E94A901C701B601B6
:1009C0000E94B5059B01AC01C301B2010E94140550
:1009D00020E030E040E251E40E946C060E9486056F
:1009E00090E080E04AE00E94A9012DCFE1E3F1E030
:1009F0001382128284E091E0918380838CE084836F
:100A00008FEF85838BE0868385E0878384E0808712
:100A100083E0818782E08287138614861586168696
:100A2000178681E00C9489025058BB27AA270E94A0
:100A30002C050C942D060E941F0638F00E942606F5
:100A400020F039F49F3F19F426F40C941C060EF4A0
:100A5000E095E7FB0C941606E92F0E943E0658F33A
:100A6000BA17620773078407950720F079F4A6F593
:100A70000C9460060EF4E0950B2EBA2FA02D0B01FE
:100A8000B90190010C01CA01A0011124FF27591BD3
:100A900099F0593F50F4503E68F11A16F040A22FD9
:100AA000232F342F4427585FF3CF4695379527954A
:100AB000A795F0405395C9F77EF41F16BA0B620B49
:100AC000730B840BBAF09150A1F0FF0FBB1F661F90
:100AD000771F881FC2F70EC0BA0F621F731F841FD3
:100AE00048F4879577956795B795F7959E3F08F0F9
:100AF000B0CF9395880F08F09927EE0F97958795BB
:100B000008950E94F20508F481E008950E944606C7
:100B100088F09F5798F0B92F9927B751B0F0E1F0BE
:100B2000660F771F881F991F1AF0BA95C9F714C06E
:100B3000B13091F00E946006B1E008950C94600617
:100B4000672F782F8827B85F39F0B93FCCF38695A7
:100B500077956795B395D9F73EF490958095709504
:100B600061957F4F8F4F9F4F0895E89409C097FB81
:100B70003EF490958095709561957F4F8F4F9F4F74
:100B80009923A9F0F92F96E9BB279395F6958795B8
:100B900077956795B795F111F8CFFAF4BB0F11F47B
:100BA00060FF1BC06F5F7F4F8F4F9F4F16C0882322
:100BB00011F096E911C0772321F09EE8872F762F58
:100BC00005C0662371F096E8862F70E060E02AF099
:100BD0009A95660F771F881FDAF7880F9695879585
:100BE00097F90895990F0008550FAA0BE0E8FEEF5A
:100BF00016161706E807F907C0F012161306E407E1
:100C0000F50798F0621B730B840B950B39F40A26D9
:100C100061F0232B242B252B21F408950A2609F4B7
:100C2000A140A6958FEF811D811D089597F99F67BB
:100C300080E870E060E008959FEF80EC0895002464
:100C40000A941616170618060906089500240A9431
:100C500012161306140605060895092E0394000CB7
:100C600011F4882352F0BB0F40F4BF2B11F460FF46
:100C700004C06F5F7F4F8F4F9F4F089557FD90586F
:100C8000440F551F59F05F3F71F04795880F97FB50
:100C9000991F61F09F3F79F087950895121613060A
:100CA0001406551FF2CF4695F1DF08C01616170639
:100CB0001806991FF1CF869571056105089408956E
:100CC000E894BB2766277727CB0197F908950E9400
:100CD000F20508F48FEF08950E947F060C942D060C
:100CE0000E941F0638F00E94260620F0952311F07E
:100CF0000C9416060C941C0611240C9461060E9498
:100D00003E0670F3959FC1F3950F50E0551F629F0B
:100D1000F001729FBB27F00DB11D639FAA27F00D54
:100D2000B11DAA1F649F6627B00DA11D661F829F7B
:100D30002227B00DA11D621F739FB00DA11D621F60
:100D4000839FA00D611D221F749F3327A00D611D7D
:100D5000231F849F600D211D822F762F6A2F11245F
:100D60009F5750409AF0F1F088234AF0EE0FFF1F92
:100D7000BB1F661F771F881F91505040A9F79E3FE9
:100D8000510580F00C9416060C9461065F3FE4F365
:100D9000983ED4F3869577956795B795F795E7953F
:100DA0009F5FC1F7FE2B880F911D9695879597F948
:100DB00008950E94F205880B990B0895A1E21A2E5E
:100DC000AA1BBB1BFD010DC0AA1FBB1FEE1FFF1FEF
:100DD000A217B307E407F50720F0A21BB30BE40B3F
:100DE000F50B661F771F881F991F1A9469F7609586
:100DF0007095809590959B01AC01BD01CF01089540
:100E0000EE0FFF1F0590F491E02D0994F894FFCFA9
:100E1000000000002F036B01990198016E616E00C4
:100E2000696E66006F7666002044656772656520AE
:080E300043656C7369757300E2
:00000001FF
